{
  "contractName": "Auction",
  "abi": [
    {
      "constant": true,
      "inputs": [],
      "name": "hasInitialized",
      "outputs": [
        {
          "name": "",
          "type": "bool"
        }
      ],
      "payable": false,
      "stateMutability": "view",
      "type": "function"
    },
    {
      "constant": true,
      "inputs": [
        {
          "name": "",
          "type": "uint256"
        },
        {
          "name": "",
          "type": "address"
        }
      ],
      "name": "claimed",
      "outputs": [
        {
          "name": "",
          "type": "bool"
        }
      ],
      "payable": false,
      "stateMutability": "view",
      "type": "function"
    },
    {
      "constant": true,
      "inputs": [
        {
          "name": "_script",
          "type": "bytes"
        }
      ],
      "name": "getEVMScriptExecutor",
      "outputs": [
        {
          "name": "",
          "type": "address"
        }
      ],
      "payable": false,
      "stateMutability": "view",
      "type": "function"
    },
    {
      "constant": true,
      "inputs": [],
      "name": "tokenManager",
      "outputs": [
        {
          "name": "",
          "type": "address"
        }
      ],
      "payable": false,
      "stateMutability": "view",
      "type": "function"
    },
    {
      "constant": true,
      "inputs": [],
      "name": "getRecoveryVault",
      "outputs": [
        {
          "name": "",
          "type": "address"
        }
      ],
      "payable": false,
      "stateMutability": "view",
      "type": "function"
    },
    {
      "constant": true,
      "inputs": [
        {
          "name": "",
          "type": "uint256"
        },
        {
          "name": "",
          "type": "address"
        }
      ],
      "name": "userBuys",
      "outputs": [
        {
          "name": "",
          "type": "uint256"
        }
      ],
      "payable": false,
      "stateMutability": "view",
      "type": "function"
    },
    {
      "constant": true,
      "inputs": [],
      "name": "foundation",
      "outputs": [
        {
          "name": "",
          "type": "address"
        }
      ],
      "payable": false,
      "stateMutability": "view",
      "type": "function"
    },
    {
      "constant": true,
      "inputs": [],
      "name": "utils",
      "outputs": [
        {
          "name": "",
          "type": "address"
        }
      ],
      "payable": false,
      "stateMutability": "view",
      "type": "function"
    },
    {
      "constant": true,
      "inputs": [],
      "name": "startTime",
      "outputs": [
        {
          "name": "",
          "type": "uint256"
        }
      ],
      "payable": false,
      "stateMutability": "view",
      "type": "function"
    },
    {
      "constant": true,
      "inputs": [
        {
          "name": "",
          "type": "uint256"
        }
      ],
      "name": "dailyTotals",
      "outputs": [
        {
          "name": "",
          "type": "uint256"
        }
      ],
      "payable": false,
      "stateMutability": "view",
      "type": "function"
    },
    {
      "constant": true,
      "inputs": [
        {
          "name": "token",
          "type": "address"
        }
      ],
      "name": "allowRecoverability",
      "outputs": [
        {
          "name": "",
          "type": "bool"
        }
      ],
      "payable": false,
      "stateMutability": "view",
      "type": "function"
    },
    {
      "constant": true,
      "inputs": [],
      "name": "appId",
      "outputs": [
        {
          "name": "",
          "type": "bytes32"
        }
      ],
      "payable": false,
      "stateMutability": "view",
      "type": "function"
    },
    {
      "constant": true,
      "inputs": [],
      "name": "CREATOR_ROLE",
      "outputs": [
        {
          "name": "",
          "type": "bytes32"
        }
      ],
      "payable": false,
      "stateMutability": "view",
      "type": "function"
    },
    {
      "constant": true,
      "inputs": [],
      "name": "getInitializationBlock",
      "outputs": [
        {
          "name": "",
          "type": "uint256"
        }
      ],
      "payable": false,
      "stateMutability": "view",
      "type": "function"
    },
    {
      "constant": false,
      "inputs": [
        {
          "name": "_token",
          "type": "address"
        }
      ],
      "name": "transferToVault",
      "outputs": [],
      "payable": false,
      "stateMutability": "nonpayable",
      "type": "function"
    },
    {
      "constant": true,
      "inputs": [
        {
          "name": "_sender",
          "type": "address"
        },
        {
          "name": "_role",
          "type": "bytes32"
        },
        {
          "name": "_params",
          "type": "uint256[]"
        }
      ],
      "name": "canPerform",
      "outputs": [
        {
          "name": "",
          "type": "bool"
        }
      ],
      "payable": false,
      "stateMutability": "view",
      "type": "function"
    },
    {
      "constant": true,
      "inputs": [],
      "name": "getEVMScriptRegistry",
      "outputs": [
        {
          "name": "",
          "type": "address"
        }
      ],
      "payable": false,
      "stateMutability": "view",
      "type": "function"
    },
    {
      "constant": true,
      "inputs": [],
      "name": "openTime",
      "outputs": [
        {
          "name": "",
          "type": "uint256"
        }
      ],
      "payable": false,
      "stateMutability": "view",
      "type": "function"
    },
    {
      "constant": true,
      "inputs": [],
      "name": "createFirstDay",
      "outputs": [
        {
          "name": "",
          "type": "uint256"
        }
      ],
      "payable": false,
      "stateMutability": "view",
      "type": "function"
    },
    {
      "constant": true,
      "inputs": [],
      "name": "kernel",
      "outputs": [
        {
          "name": "",
          "type": "address"
        }
      ],
      "payable": false,
      "stateMutability": "view",
      "type": "function"
    },
    {
      "constant": true,
      "inputs": [],
      "name": "isPetrified",
      "outputs": [
        {
          "name": "",
          "type": "bool"
        }
      ],
      "payable": false,
      "stateMutability": "view",
      "type": "function"
    },
    {
      "constant": true,
      "inputs": [],
      "name": "numberOfDays",
      "outputs": [
        {
          "name": "",
          "type": "uint256"
        }
      ],
      "payable": false,
      "stateMutability": "view",
      "type": "function"
    },
    {
      "constant": true,
      "inputs": [],
      "name": "createPerDay",
      "outputs": [
        {
          "name": "",
          "type": "uint256"
        }
      ],
      "payable": false,
      "stateMutability": "view",
      "type": "function"
    },
    {
      "constant": true,
      "inputs": [],
      "name": "token",
      "outputs": [
        {
          "name": "",
          "type": "address"
        }
      ],
      "payable": false,
      "stateMutability": "view",
      "type": "function"
    },
    {
      "payable": true,
      "stateMutability": "payable",
      "type": "fallback"
    },
    {
      "anonymous": false,
      "inputs": [
        {
          "indexed": false,
          "name": "window",
          "type": "uint256"
        },
        {
          "indexed": true,
          "name": "user",
          "type": "address"
        },
        {
          "indexed": false,
          "name": "amount",
          "type": "uint256"
        }
      ],
      "name": "LogBuy",
      "type": "event"
    },
    {
      "anonymous": false,
      "inputs": [
        {
          "indexed": false,
          "name": "window",
          "type": "uint256"
        },
        {
          "indexed": true,
          "name": "user",
          "type": "address"
        },
        {
          "indexed": false,
          "name": "amount",
          "type": "uint256"
        }
      ],
      "name": "LogClaim",
      "type": "event"
    },
    {
      "anonymous": false,
      "inputs": [
        {
          "indexed": false,
          "name": "amount",
          "type": "uint256"
        }
      ],
      "name": "LogCollect",
      "type": "event"
    },
    {
      "anonymous": false,
      "inputs": [
        {
          "indexed": false,
          "name": "amount",
          "type": "uint256"
        }
      ],
      "name": "LogPrice",
      "type": "event"
    },
    {
      "anonymous": false,
      "inputs": [],
      "name": "LogLoaded",
      "type": "event"
    },
    {
      "anonymous": false,
      "inputs": [],
      "name": "LogBurn",
      "type": "event"
    },
    {
      "anonymous": false,
      "inputs": [
        {
          "indexed": true,
          "name": "executor",
          "type": "address"
        },
        {
          "indexed": false,
          "name": "script",
          "type": "bytes"
        },
        {
          "indexed": false,
          "name": "input",
          "type": "bytes"
        },
        {
          "indexed": false,
          "name": "returnData",
          "type": "bytes"
        }
      ],
      "name": "ScriptResult",
      "type": "event"
    },
    {
      "anonymous": false,
      "inputs": [
        {
          "indexed": true,
          "name": "vault",
          "type": "address"
        },
        {
          "indexed": true,
          "name": "token",
          "type": "address"
        },
        {
          "indexed": false,
          "name": "amount",
          "type": "uint256"
        }
      ],
      "name": "RecoverToVault",
      "type": "event"
    },
    {
      "constant": false,
      "inputs": [
        {
          "name": "_numberOfDays",
          "type": "uint256"
        },
        {
          "name": "_openTime",
          "type": "uint256"
        },
        {
          "name": "_startTime",
          "type": "uint256"
        },
        {
          "name": "_token",
          "type": "address"
        },
        {
          "name": "_foundation",
          "type": "address"
        },
        {
          "name": "_tokenManager",
          "type": "address"
        }
      ],
      "name": "initialize",
      "outputs": [],
      "payable": false,
      "stateMutability": "nonpayable",
      "type": "function"
    },
    {
      "constant": false,
      "inputs": [
        {
          "name": "_createFirstDay",
          "type": "uint256"
        }
      ],
      "name": "load",
      "outputs": [],
      "payable": false,
      "stateMutability": "nonpayable",
      "type": "function"
    },
    {
      "constant": false,
      "inputs": [
        {
          "name": "_utils",
          "type": "address"
        }
      ],
      "name": "addUtils",
      "outputs": [],
      "payable": false,
      "stateMutability": "nonpayable",
      "type": "function"
    },
    {
      "constant": true,
      "inputs": [],
      "name": "time",
      "outputs": [
        {
          "name": "",
          "type": "uint256"
        }
      ],
      "payable": false,
      "stateMutability": "view",
      "type": "function"
    },
    {
      "constant": true,
      "inputs": [],
      "name": "today",
      "outputs": [
        {
          "name": "",
          "type": "uint256"
        }
      ],
      "payable": false,
      "stateMutability": "view",
      "type": "function"
    },
    {
      "constant": true,
      "inputs": [
        {
          "name": "timestamp",
          "type": "uint256"
        }
      ],
      "name": "dayFor",
      "outputs": [
        {
          "name": "",
          "type": "uint256"
        }
      ],
      "payable": false,
      "stateMutability": "view",
      "type": "function"
    },
    {
      "constant": true,
      "inputs": [
        {
          "name": "day",
          "type": "uint256"
        }
      ],
      "name": "createOnDay",
      "outputs": [
        {
          "name": "",
          "type": "uint256"
        }
      ],
      "payable": false,
      "stateMutability": "view",
      "type": "function"
    },
    {
      "constant": false,
      "inputs": [
        {
          "name": "day",
          "type": "uint256"
        },
        {
          "name": "limit",
          "type": "uint256"
        }
      ],
      "name": "buyWithLimit",
      "outputs": [],
      "payable": true,
      "stateMutability": "payable",
      "type": "function"
    },
    {
      "constant": false,
      "inputs": [],
      "name": "buy",
      "outputs": [],
      "payable": true,
      "stateMutability": "payable",
      "type": "function"
    },
    {
      "constant": false,
      "inputs": [
        {
          "name": "day",
          "type": "uint256"
        }
      ],
      "name": "claim",
      "outputs": [],
      "payable": false,
      "stateMutability": "nonpayable",
      "type": "function"
    },
    {
      "constant": false,
      "inputs": [],
      "name": "claimAll",
      "outputs": [],
      "payable": false,
      "stateMutability": "nonpayable",
      "type": "function"
    },
    {
      "constant": false,
      "inputs": [],
      "name": "collect",
      "outputs": [],
      "payable": false,
      "stateMutability": "nonpayable",
      "type": "function"
    },
    {
      "constant": false,
      "inputs": [],
      "name": "burnDust",
      "outputs": [],
      "payable": false,
      "stateMutability": "nonpayable",
      "type": "function"
    }
  ],
  "bytecode": "0x608060405234801561001057600080fd5b50604051611b6f380380611b6f8339818101604052608081101561003357600080fd5b8101908080519060200190929190805190602001909291908051906020019092919080519060200190929190505050336000806101000a81548173ffffffffffffffffffffffffffffffffffffffff021916908373ffffffffffffffffffffffffffffffffffffffff1602179055506000809054906101000a900473ffffffffffffffffffffffffffffffffffffffff1673ffffffffffffffffffffffffffffffffffffffff16600073ffffffffffffffffffffffffffffffffffffffff167f8be0079c531659141344cd1fd0a4f28419497f9722a3daafe3b4186f6b6457e060405160405180910390a383600581905550826002819055508160048190555080600160006101000a81548173ffffffffffffffffffffffffffffffffffffffff021916908373ffffffffffffffffffffffffffffffffffffffff16021790555060006005541161018057fe5b6004546002541061018d57fe5b505050506119cf806101a06000396000f3fe6080604052600436106101b3576000357c0100000000000000000000000000000000000000000000000000000000900480638f32d59b116100fe578063d90c1759116100a7578063e9f6bd0b11610081578063e9f6bd0b146106b2578063f2fde38b146106dd578063f96512cc1461072e578063fc0c546a14610759576101b3565b8063d90c175914610614578063e0cb3aa014610663578063e52253811461069b576101b3565b8063b74e452b116100d8578063b74e452b146105a7578063cfae52e1146105d2578063d1058e59146105fd576101b3565b80638f32d59b14610543578063a6f2ae3a14610572578063b42568881461057c576101b3565b8063670d14b2116101605780637d34f5ac1161013a5780637d34f5ac146104865780638129fc1c146104d55780638da5cb5b146104ec576101b3565b8063670d14b21461037a578063715018a61461044457806378e979251461045b576101b3565b80633904e1bf116101915780633904e1bf146102a55780635ca811391461031457806362a5af3b14610363576101b3565b8063120aa877146101cc57806316ada5471461023f578063379607f51461026a575b6000600354116101c257600080fd5b6101ca6107b0565b005b3480156101d857600080fd5b50610225600480360360408110156101ef57600080fd5b8101908080359060200190929190803573ffffffffffffffffffffffffffffffffffffffff1690602001909291905050506107d3565b604051808215151515815260200191505060405180910390f35b34801561024b57600080fd5b50610254610802565b6040518082815260200191505060405180910390f35b34801561027657600080fd5b506102a36004803603602081101561028d57600080fd5b810190808035906020019092919050505061080a565b005b3480156102b157600080fd5b506102fe600480360360408110156102c857600080fd5b8101908080359060200190929190803573ffffffffffffffffffffffffffffffffffffffff169060200190929190505050610b50565b6040518082815260200191505060405180910390f35b34801561032057600080fd5b5061034d6004803603602081101561033757600080fd5b8101908080359060200190929190505050610b75565b6040518082815260200191505060405180910390f35b34801561036f57600080fd5b50610378610b91565b005b34801561038657600080fd5b506103c96004803603602081101561039d57600080fd5b81019080803573ffffffffffffffffffffffffffffffffffffffff169060200190929190505050610be3565b6040518080602001828103825283818151815260200191508051906020019080838360005b838110156104095780820151818401526020810190506103ee565b50505050905090810190601f1680156104365780820380516001836020036101000a031916815260200191505b509250505060405180910390f35b34801561045057600080fd5b50610459610c93565b005b34801561046757600080fd5b50610470610dcc565b6040518082815260200191505060405180910390f35b34801561049257600080fd5b506104bf600480360360208110156104a957600080fd5b8101908080359060200190929190505050610dd2565b6040518082815260200191505060405180910390f35b3480156104e157600080fd5b506104ea610dea565b005b3480156104f857600080fd5b50610501611187565b604051808273ffffffffffffffffffffffffffffffffffffffff1673ffffffffffffffffffffffffffffffffffffffff16815260200191505060405180910390f35b34801561054f57600080fd5b506105586111b0565b604051808215151515815260200191505060405180910390f35b61057a6107b0565b005b34801561058857600080fd5b50610591611207565b6040518082815260200191505060405180910390f35b3480156105b357600080fd5b506105bc61120d565b6040518082815260200191505060405180910390f35b3480156105de57600080fd5b506105e7611224565b6040518082815260200191505060405180910390f35b34801561060957600080fd5b5061061261122a565b005b34801561062057600080fd5b5061064d6004803603602081101561063757600080fd5b8101908080359060200190929190505050611267565b6040518082815260200191505060405180910390f35b6106996004803603604081101561067957600080fd5b81019080803590602001909291908035906020019092919050505061129c565b005b3480156106a757600080fd5b506106b061141d565b005b3480156106be57600080fd5b506106c7611565565b6040518082815260200191505060405180910390f35b3480156106e957600080fd5b5061072c6004803603602081101561070057600080fd5b81019080803573ffffffffffffffffffffffffffffffffffffffff16906020019092919050505061156b565b005b34801561073a57600080fd5b506107436115f1565b6040518082815260200191505060405180910390f35b34801561076557600080fd5b5061076e6115f7565b604051808273ffffffffffffffffffffffffffffffffffffffff1673ffffffffffffffffffffffffffffffffffffffff16815260200191505060405180910390f35b6000600354116107bf57600080fd5b6107d16107ca61120d565b600061129c565b565b60096020528160005260406000206020528060005260406000206000915091509054906101000a900460ff1681565b600042905090565b60006003541161081957600080fd5b8061082261120d565b1161082957fe5b6009600082815260200190815260200160002060003373ffffffffffffffffffffffffffffffffffffffff1673ffffffffffffffffffffffffffffffffffffffff16815260200190815260200160002060009054906101000a900460ff16806108a5575060006007600083815260200190815260200160002054145b156108af57610b4d565b60006108d66108bd83610b75565b600760008581526020019081526020016000205461161d565b90506000610934826008600086815260200190815260200160002060003373ffffffffffffffffffffffffffffffffffffffff1673ffffffffffffffffffffffffffffffffffffffff16815260200190815260200160002054611655565b905060016009600085815260200190815260200160002060003373ffffffffffffffffffffffffffffffffffffffff1673ffffffffffffffffffffffffffffffffffffffff16815260200190815260200160002060006101000a81548160ff021916908315150217905550600160009054906101000a900473ffffffffffffffffffffffffffffffffffffffff1673ffffffffffffffffffffffffffffffffffffffff1663a9059cbb33836040518363ffffffff167c0100000000000000000000000000000000000000000000000000000000028152600401808373ffffffffffffffffffffffffffffffffffffffff1673ffffffffffffffffffffffffffffffffffffffff16815260200182815260200192505050602060405180830381600087803b158015610a6457600080fd5b505af1158015610a78573d6000803e3d6000fd5b505050506040513d6020811015610a8e57600080fd5b8101908080519060200190929190505050507f3d0eca545e3cd19801e484dd4ad2c6e1a2c2384066ae97c5c003f8f6ec700bc3826040518082815260200191505060405180910390a17f51223fdc0a25891366fb358b4af9fe3c381b1566e287c61a29d01c8a173fe4f4833383604051808481526020018373ffffffffffffffffffffffffffffffffffffffff1673ffffffffffffffffffffffffffffffffffffffff168152602001828152602001935050505060405180910390a150505b50565b6008602052816000526040600020602052806000526040600020600091509150505481565b6000808214610b8657600654610b8a565b6003545b9050919050565b600060035411610ba057600080fd5b600160055401610bae61120d565b11610bb557fe5b7fad487f3c412409f5b36d6b5ae6f3bb9c34e15234b3e9f101bb6ef0d584593c6160405160405180910390a1565b600a6020528060005260406000206000915090508054600181600116156101000203166002900480601f016020809104026020016040519081016040528092919081815260200182805460018160011615610100020316600290048015610c8b5780601f10610c6057610100808354040283529160200191610c8b565b820191906000526020600020905b815481529060010190602001808311610c6e57829003601f168201915b505050505081565b610c9b6111b0565b610d0d576040517f08c379a00000000000000000000000000000000000000000000000000000000081526004018080602001828103825260208152602001807f4f776e61626c653a2063616c6c6572206973206e6f7420746865206f776e657281525060200191505060405180910390fd5b600073ffffffffffffffffffffffffffffffffffffffff166000809054906101000a900473ffffffffffffffffffffffffffffffffffffffff1673ffffffffffffffffffffffffffffffffffffffff167f8be0079c531659141344cd1fd0a4f28419497f9722a3daafe3b4186f6b6457e060405160405180910390a360008060006101000a81548173ffffffffffffffffffffffffffffffffffffffff021916908373ffffffffffffffffffffffffffffffffffffffff160217905550565b60045481565b60076020528060005260406000206000915090505481565b610df26111b0565b610e64576040517f08c379a00000000000000000000000000000000000000000000000000000000081526004018080602001828103825260208152602001807f4f776e61626c653a2063616c6c6572206973206e6f7420746865206f776e657281525060200191505060405180910390fd5b6000600160009054906101000a900473ffffffffffffffffffffffffffffffffffffffff1673ffffffffffffffffffffffffffffffffffffffff166370a08231306040518263ffffffff167c0100000000000000000000000000000000000000000000000000000000028152600401808273ffffffffffffffffffffffffffffffffffffffff1673ffffffffffffffffffffffffffffffffffffffff16815260200191505060206040518083038186803b158015610f2157600080fd5b505afa158015610f35573d6000803e3d6000fd5b505050506040513d6020811015610f4b57600080fd5b810190808051906020019092919050505011610f6657600080fd5b61106d600160009054906101000a900473ffffffffffffffffffffffffffffffffffffffff1673ffffffffffffffffffffffffffffffffffffffff166370a08231306040518263ffffffff167c0100000000000000000000000000000000000000000000000000000000028152600401808273ffffffffffffffffffffffffffffffffffffffff1673ffffffffffffffffffffffffffffffffffffffff16815260200191505060206040518083038186803b15801561102457600080fd5b505afa158015611038573d6000803e3d6000fd5b505050506040513d602081101561104e57600080fd5b81019080805190602001909291905050506702c68af0bb140000611655565b600381905550600554611177600160009054906101000a900473ffffffffffffffffffffffffffffffffffffffff1673ffffffffffffffffffffffffffffffffffffffff166370a08231306040518263ffffffff167c0100000000000000000000000000000000000000000000000000000000028152600401808273ffffffffffffffffffffffffffffffffffffffff1673ffffffffffffffffffffffffffffffffffffffff16815260200191505060206040518083038186803b15801561113457600080fd5b505afa158015611148573d6000803e3d6000fd5b505050506040513d602081101561115e57600080fd5b8101908080519060200190929190505050600354611695565b8161117e57fe5b04600681905550565b60008060009054906101000a900473ffffffffffffffffffffffffffffffffffffffff16905090565b60008060009054906101000a900473ffffffffffffffffffffffffffffffffffffffff1673ffffffffffffffffffffffffffffffffffffffff163373ffffffffffffffffffffffffffffffffffffffff1614905090565b60025481565b600061121f61121a610802565b611267565b905090565b60035481565b60006003541161123957600080fd5b60008090505b61124761120d565b811015611264576112578161080a565b808060010191505061123f565b50565b600060045482106112925760016201437061128484600454611695565b8161128b57fe5b0401611295565b60005b9050919050565b6000600354116112ab57600080fd5b6002546112b6610802565b101580156112cd57506005546112ca61120d565b11155b6112d357fe5b662386f26fc100003410156112e457fe5b6112ec61120d565b8210156112f557fe5b60055482111561130157fe5b346008600084815260200190815260200160002060003373ffffffffffffffffffffffffffffffffffffffff1673ffffffffffffffffffffffffffffffffffffffff16815260200190815260200160002060008282540192505081905550346007600084815260200190815260200160002060008282540192505081905550600081146113a65780600760008481526020019081526020016000205411156113a557fe5b5b7fe054057d0479c6218d6ec87be73f88230a7e4e1f064cee6e7504e2c4cd9d6150823334604051808481526020018373ffffffffffffffffffffffffffffffffffffffff1673ffffffffffffffffffffffffffffffffffffffff168152602001828152602001935050505060405180910390a15050565b6114256111b0565b611497576040517f08c379a00000000000000000000000000000000000000000000000000000000081526004018080602001828103825260208152602001807f4f776e61626c653a2063616c6c6572206973206e6f7420746865206f776e657281525060200191505060405180910390fd5b6000600354116114a657600080fd5b60006114b061120d565b116114b757fe5b3073ffffffffffffffffffffffffffffffffffffffff166108fc3073ffffffffffffffffffffffffffffffffffffffff16319081150290604051600060405180830381858888f19350505050158015611514573d6000803e3d6000fd5b507f4ceba015d961d93f1d6825703b730a8ba05619c005dfd8073aee773dc6725fbb3073ffffffffffffffffffffffffffffffffffffffff16316040518082815260200191505060405180910390a1565b60055481565b6115736111b0565b6115e5576040517f08c379a00000000000000000000000000000000000000000000000000000000081526004018080602001828103825260208152602001807f4f776e61626c653a2063616c6c6572206973206e6f7420746865206f776e657281525060200191505060405180910390fd5b6115ee81611718565b50565b60065481565b600160009054906101000a900473ffffffffffffffffffffffffffffffffffffffff1681565b60008161164561163585670de0b6b3a764000061185c565b6002858161163f57fe5b046118f1565b8161164c57fe5b04905092915050565b6000670de0b6b3a764000061168561166d858561185c565b6002670de0b6b3a76400008161167f57fe5b046118f1565b8161168c57fe5b04905092915050565b6000828284039150811115611712576040517f08c379a00000000000000000000000000000000000000000000000000000000081526004018080602001828103825260158152602001807f64732d6d6174682d7375622d756e646572666c6f77000000000000000000000081525060200191505060405180910390fd5b92915050565b600073ffffffffffffffffffffffffffffffffffffffff168173ffffffffffffffffffffffffffffffffffffffff16141561179e576040517f08c379a00000000000000000000000000000000000000000000000000000000081526004018080602001828103825260268152602001806119756026913960400191505060405180910390fd5b8073ffffffffffffffffffffffffffffffffffffffff166000809054906101000a900473ffffffffffffffffffffffffffffffffffffffff1673ffffffffffffffffffffffffffffffffffffffff167f8be0079c531659141344cd1fd0a4f28419497f9722a3daafe3b4186f6b6457e060405160405180910390a3806000806101000a81548173ffffffffffffffffffffffffffffffffffffffff021916908373ffffffffffffffffffffffffffffffffffffffff16021790555050565b600080821480611879575082828385029250828161187657fe5b04145b6118eb576040517f08c379a00000000000000000000000000000000000000000000000000000000081526004018080602001828103825260148152602001807f64732d6d6174682d6d756c2d6f766572666c6f7700000000000000000000000081525060200191505060405180910390fd5b92915050565b600082828401915081101561196e576040517f08c379a00000000000000000000000000000000000000000000000000000000081526004018080602001828103825260148152602001807f64732d6d6174682d6164642d6f766572666c6f7700000000000000000000000081525060200191505060405180910390fd5b9291505056fe4f776e61626c653a206e6577206f776e657220697320746865207a65726f2061646472657373a265627a7a72305820ec4053c9244e39539ee92927e6de1eaca423837a68caaadc91edfeafbae0ba5364736f6c634300050a0032",
  "source": "pragma solidity 0.5.10;\n\n\nimport \"@openzeppelin/contracts/token/ERC20/IERC20.sol\";\nimport \"@openzeppelin/contracts/ownership/Ownable.sol\";\nimport \"./DSMath.sol\";\n\ncontract Auction is Ownable, DSMath {\n\n    IERC20 public token;\n\n    uint256 public openTime;\n    uint256 public createFirstDay;\n\n    uint256 public startTime;\n    uint256 public numberOfDays;\n    uint256 public createPerDay;\n\n    mapping (uint256 => uint256) public dailyTotals;\n    mapping (uint256 => mapping (address => uint256)) public userBuys;\n    mapping (uint256 => mapping (address => bool)) public claimed;\n    mapping (address => string) public keys;\n\n    modifier initialized {\n        require(createFirstDay > 0);\n        _;\n    }\n\n    event LogBuy (uint256 window, address user, uint256 amount);\n    event LogClaim (uint256 window, address user, uint256 amount);\n    event LogCollect (uint256 amount);\n    event LogFreeze ();\n    event LogPrice (uint256 amount);\n\n    constructor(\n        uint256 _numberOfDays,\n        uint256 _openTime,\n        uint256 _startTime,\n        IERC20  _token\n    ) public {\n        numberOfDays = _numberOfDays;\n        openTime = _openTime;\n        startTime = _startTime;\n        token = _token;\n\n        assert(numberOfDays > 0);\n        assert(openTime < startTime);\n    }\n\n    function initialize() public onlyOwner {\n        require(token.balanceOf(address(this)) > 0);\n        createFirstDay = wmul(token.balanceOf(address(this)), 0.2 ether);\n        createPerDay = sub(token.balanceOf(address(this)), createFirstDay) / numberOfDays;\n    }\n\n    function time() public view returns (uint256) {\n        return block.timestamp;\n    }\n\n    function today() public view returns (uint256) {\n        return dayFor(time());\n    }\n\n    function dayFor(uint256 timestamp) public view returns (uint256) {\n        return timestamp < startTime\n            ? 0\n            : sub(timestamp, startTime) / 23 hours + 1;\n    }\n\n    function createOnDay(uint256 day) public view returns (uint256) {\n        return day == 0 ? createFirstDay : createPerDay;\n    }\n\n    function buyWithLimit(uint256 day, uint256 limit) public payable initialized {\n        assert(time() >= openTime && today() <= numberOfDays);\n        assert(msg.value >= 0.01 ether);\n\n        assert(day >= today());\n        assert(day <= numberOfDays);\n\n        userBuys[day][msg.sender] += msg.value;\n        dailyTotals[day] += msg.value;\n\n        if (limit != 0) {\n            assert(dailyTotals[day] <= limit);\n        }\n\n        emit LogBuy(day, msg.sender, msg.value);\n    }\n\n    function buy() public payable initialized {\n       buyWithLimit(today(), 0);\n    }\n\n    function () external payable initialized {\n       buy();\n    }\n\n    function claim(uint256 day) public initialized {\n        assert(today() > day);\n\n        if (claimed[day][msg.sender] || dailyTotals[day] == 0) {\n            return;\n        }\n\n        uint256 price = wdiv(createOnDay(day), dailyTotals[day]);\n        uint256 reward = wmul(price, userBuys[day][msg.sender]);\n\n        claimed[day][msg.sender] = true;\n        token.transfer(msg.sender, reward);\n\n        emit LogPrice(price);\n        emit LogClaim(day, msg.sender, reward);\n    }\n\n    function claimAll() public initialized {\n        for (uint256 i = 0; i < today(); i++) {\n            claim(i);\n        }\n    }\n\n    function collect() public onlyOwner initialized {\n        assert(today() > 0);\n        address(this).transfer(address(this).balance);\n\n        emit LogCollect(address(this).balance);\n    }\n\n    function freeze() public initialized {\n        assert(today() > numberOfDays + 1);\n        emit LogFreeze();\n    }\n}",
  "sourcePath": "/Users/litvintech/Projects/cyber_auction/contracts/Auction.sol",
  "compiler": {
    "name": "solc",
    "version": "0.5.10+commit.5a6ea5b1.Emscripten.clang"
  },
  "schemaVersion": "3.0.13",
  "updatedAt": "2019-09-05T15:36:19.801Z",
  "devdoc": {
    "methods": {
      "isOwner()": {
        "details": "Returns true if the caller is the current owner."
      },
      "owner()": {
        "details": "Returns the address of the current owner."
      },
      "renounceOwnership()": {
        "details": "Leaves the contract without owner. It will not be possible to call `onlyOwner` functions anymore. Can only be called by the current owner.     * > Note: Renouncing ownership will leave the contract without an owner, thereby removing any functionality that is only available to the owner."
      },
      "transferOwnership(address)": {
        "details": "Transfers ownership of the contract to a new account (`newOwner`). Can only be called by the current owner."
      }
    }
  },
  "userdoc": {
    "methods": {}
  }
}