{
  "contractName": "AuctionUtils",
  "abi": [
    {
      "constant": true,
      "inputs": [
        {
          "name": "user",
          "type": "address"
        }
      ],
      "name": "userBuys",
      "outputs": [
        {
          "name": "result",
          "type": "uint256[101]"
        }
      ],
      "payable": false,
      "stateMutability": "view",
      "type": "function"
    },
    {
      "constant": true,
      "inputs": [],
      "name": "sale",
      "outputs": [
        {
          "name": "",
          "type": "address"
        }
      ],
      "payable": false,
      "stateMutability": "view",
      "type": "function"
    },
    {
      "constant": true,
      "inputs": [],
      "name": "dailyTotals",
      "outputs": [
        {
          "name": "result",
          "type": "uint256[101]"
        }
      ],
      "payable": false,
      "stateMutability": "view",
      "type": "function"
    },
    {
      "constant": true,
      "inputs": [
        {
          "name": "user",
          "type": "address"
        }
      ],
      "name": "userClaims",
      "outputs": [
        {
          "name": "result",
          "type": "bool[101]"
        }
      ],
      "payable": false,
      "stateMutability": "view",
      "type": "function"
    },
    {
      "inputs": [
        {
          "name": "_sale",
          "type": "address"
        }
      ],
      "payable": false,
      "stateMutability": "nonpayable",
      "type": "constructor"
    }
  ],
  "bytecode": "0x608060405234801561001057600080fd5b506040516106b63803806106b68339818101604052602081101561003357600080fd5b8101908080519060200190929190505050806000806101000a81548173ffffffffffffffffffffffffffffffffffffffff021916908373ffffffffffffffffffffffffffffffffffffffff16021790555050610622806100946000396000f3fe608060405234801561001057600080fd5b5060043610610069576000357c01000000000000000000000000000000000000000000000000000000009004806348d2df481461006e5780636ad1fe02146100ee57806383c56fc814610138578063f0a3563c1461017e575b600080fd5b6100b06004803603602081101561008457600080fd5b81019080803573ffffffffffffffffffffffffffffffffffffffff1690602001909291905050506101fe565b6040518082603c60200280838360005b838110156100db5780820151818401526020810190506100c0565b5050505090500191505060405180910390f35b6100f661033a565b604051808273ffffffffffffffffffffffffffffffffffffffff1673ffffffffffffffffffffffffffffffffffffffff16815260200191505060405180910390f35b61014061035f565b6040518082603c60200280838360005b8381101561016b578082015181840152602081019050610150565b5050505090500191505060405180910390f35b6101c06004803603602081101561019457600080fd5b81019080803573ffffffffffffffffffffffffffffffffffffffff169060200190929190505050610465565b6040518082603c60200280838360005b838110156101eb5780820151818401526020810190506101d0565b5050505090500191505060405180910390f35b6102066105a7565b60008090505b603c811015610334576000809054906101000a900473ffffffffffffffffffffffffffffffffffffffff1673ffffffffffffffffffffffffffffffffffffffff16633904e1bf82856040518363ffffffff167c0100000000000000000000000000000000000000000000000000000000028152600401808381526020018273ffffffffffffffffffffffffffffffffffffffff1673ffffffffffffffffffffffffffffffffffffffff1681526020019250505060206040518083038186803b1580156102d757600080fd5b505afa1580156102eb573d6000803e3d6000fd5b505050506040513d602081101561030157600080fd5b81019080805190602001909291905050508282603c811061031e57fe5b602002018181525050808060010191505061020c565b50919050565b6000809054906101000a900473ffffffffffffffffffffffffffffffffffffffff1681565b6103676105a7565b60008090505b603c811015610461576000809054906101000a900473ffffffffffffffffffffffffffffffffffffffff1673ffffffffffffffffffffffffffffffffffffffff16637d34f5ac826040518263ffffffff167c01000000000000000000000000000000000000000000000000000000000281526004018082815260200191505060206040518083038186803b15801561040457600080fd5b505afa158015610418573d6000803e3d6000fd5b505050506040513d602081101561042e57600080fd5b81019080805190602001909291905050508282603c811061044b57fe5b602002018181525050808060010191505061036d565b5090565b61046d6105ca565b60008090505b603c8110156105a1576000809054906101000a900473ffffffffffffffffffffffffffffffffffffffff1673ffffffffffffffffffffffffffffffffffffffff1663120aa87782856040518363ffffffff167c0100000000000000000000000000000000000000000000000000000000028152600401808381526020018273ffffffffffffffffffffffffffffffffffffffff1673ffffffffffffffffffffffffffffffffffffffff1681526020019250505060206040518083038186803b15801561053e57600080fd5b505afa158015610552573d6000803e3d6000fd5b505050506040513d602081101561056857600080fd5b81019080805190602001909291905050508282603c811061058557fe5b6020020190151590811515815250508080600101915050610473565b50919050565b604051806107800160405280603c90602082028038833980820191505090505090565b604051806107800160405280603c9060208202803883398082019150509050509056fea265627a7a7230582074d5fad51b99a19259f2eb2ee210c8aa50131556231310eac48801b7ffba0e1564736f6c634300050a0032",
  "source": "pragma solidity 0.5.10;\n\nimport \"./Auction.sol\";\n\ncontract AuctionUtils {\n    Auction public sale;\n\n    constructor(Auction _sale) public {\n        sale = _sale;\n    }\n\n    function dailyTotals() external view returns (uint[60] memory result) {\n        for (uint i = 0; i < 60; i++) {\n            result[i] = sale.dailyTotals(i);\n        }\n    }\n\n    function userBuys(address user) external view returns (uint[60] memory result) {\n        for (uint i = 0; i < 60; i++) {\n            result[i] = sale.userBuys(i, user);\n        }\n    }\n\n    function userClaims(address user) external view returns (bool[60] memory result) {\n        for (uint i = 0; i < 60; i++) {\n            result[i] = sale.claimed(i, user);\n        }\n    }\n}",
  "sourcePath": "/Users/litvintech/Projects/cyber_auction/contracts/AuctionUtils.sol",
  "compiler": {
    "name": "solc",
    "version": "0.5.10+commit.5a6ea5b1.Emscripten.clang"
  },
  "schemaVersion": "3.0.13",
  "updatedAt": "2019-09-05T15:36:19.812Z",
  "devdoc": {
    "methods": {}
  },
  "userdoc": {
    "methods": {}
  }
}