{
  "contractName": "Vesting",
  "abi": [
    {
      "constant": true,
      "inputs": [],
      "name": "hasInitialized",
      "outputs": [
        {
          "name": "",
          "type": "bool"
        }
      ],
      "payable": false,
      "stateMutability": "view",
      "type": "function"
    },
    {
      "constant": true,
      "inputs": [
        {
          "name": "",
          "type": "address"
        }
      ],
      "name": "claimsLength",
      "outputs": [
        {
          "name": "",
          "type": "uint256"
        }
      ],
      "payable": false,
      "stateMutability": "view",
      "type": "function"
    },
    {
      "constant": true,
      "inputs": [
        {
          "name": "_script",
          "type": "bytes"
        }
      ],
      "name": "getEVMScriptExecutor",
      "outputs": [
        {
          "name": "",
          "type": "address"
        }
      ],
      "payable": false,
      "stateMutability": "view",
      "type": "function"
    },
    {
      "constant": true,
      "inputs": [],
      "name": "tokenManager",
      "outputs": [
        {
          "name": "",
          "type": "address"
        }
      ],
      "payable": false,
      "stateMutability": "view",
      "type": "function"
    },
    {
      "constant": true,
      "inputs": [],
      "name": "getRecoveryVault",
      "outputs": [
        {
          "name": "",
          "type": "address"
        }
      ],
      "payable": false,
      "stateMutability": "view",
      "type": "function"
    },
    {
      "constant": true,
      "inputs": [],
      "name": "PAUSE_ROLE",
      "outputs": [
        {
          "name": "",
          "type": "bytes32"
        }
      ],
      "payable": false,
      "stateMutability": "view",
      "type": "function"
    },
    {
      "constant": true,
      "inputs": [],
      "name": "paused",
      "outputs": [
        {
          "name": "",
          "type": "bool"
        }
      ],
      "payable": false,
      "stateMutability": "view",
      "type": "function"
    },
    {
      "constant": true,
      "inputs": [
        {
          "name": "token",
          "type": "address"
        }
      ],
      "name": "allowRecoverability",
      "outputs": [
        {
          "name": "",
          "type": "bool"
        }
      ],
      "payable": false,
      "stateMutability": "view",
      "type": "function"
    },
    {
      "constant": true,
      "inputs": [],
      "name": "PROOF_ROLE",
      "outputs": [
        {
          "name": "",
          "type": "bytes32"
        }
      ],
      "payable": false,
      "stateMutability": "view",
      "type": "function"
    },
    {
      "constant": true,
      "inputs": [],
      "name": "appId",
      "outputs": [
        {
          "name": "",
          "type": "bytes32"
        }
      ],
      "payable": false,
      "stateMutability": "view",
      "type": "function"
    },
    {
      "constant": true,
      "inputs": [],
      "name": "vestingEnd",
      "outputs": [
        {
          "name": "",
          "type": "uint64"
        }
      ],
      "payable": false,
      "stateMutability": "view",
      "type": "function"
    },
    {
      "constant": true,
      "inputs": [],
      "name": "getInitializationBlock",
      "outputs": [
        {
          "name": "",
          "type": "uint256"
        }
      ],
      "payable": false,
      "stateMutability": "view",
      "type": "function"
    },
    {
      "constant": false,
      "inputs": [
        {
          "name": "_token",
          "type": "address"
        }
      ],
      "name": "transferToVault",
      "outputs": [],
      "payable": false,
      "stateMutability": "nonpayable",
      "type": "function"
    },
    {
      "constant": true,
      "inputs": [
        {
          "name": "_sender",
          "type": "address"
        },
        {
          "name": "_role",
          "type": "bytes32"
        },
        {
          "name": "_params",
          "type": "uint256[]"
        }
      ],
      "name": "canPerform",
      "outputs": [
        {
          "name": "",
          "type": "bool"
        }
      ],
      "payable": false,
      "stateMutability": "view",
      "type": "function"
    },
    {
      "constant": true,
      "inputs": [],
      "name": "getEVMScriptRegistry",
      "outputs": [
        {
          "name": "",
          "type": "address"
        }
      ],
      "payable": false,
      "stateMutability": "view",
      "type": "function"
    },
    {
      "constant": true,
      "inputs": [],
      "name": "kernel",
      "outputs": [
        {
          "name": "",
          "type": "address"
        }
      ],
      "payable": false,
      "stateMutability": "view",
      "type": "function"
    },
    {
      "constant": true,
      "inputs": [],
      "name": "isPetrified",
      "outputs": [
        {
          "name": "",
          "type": "bool"
        }
      ],
      "payable": false,
      "stateMutability": "view",
      "type": "function"
    },
    {
      "constant": true,
      "inputs": [
        {
          "name": "",
          "type": "address"
        }
      ],
      "name": "proofsLength",
      "outputs": [
        {
          "name": "",
          "type": "uint256"
        }
      ],
      "payable": false,
      "stateMutability": "view",
      "type": "function"
    },
    {
      "anonymous": false,
      "inputs": [
        {
          "indexed": false,
          "name": "vestingId",
          "type": "uint256"
        },
        {
          "indexed": true,
          "name": "lockAddress",
          "type": "address"
        },
        {
          "indexed": false,
          "name": "amount",
          "type": "uint256"
        },
        {
          "indexed": false,
          "name": "account",
          "type": "string"
        }
      ],
      "name": "NewLock",
      "type": "event"
    },
    {
      "anonymous": false,
      "inputs": [
        {
          "indexed": false,
          "name": "vestingId",
          "type": "uint256"
        },
        {
          "indexed": true,
          "name": "claimer",
          "type": "address"
        },
        {
          "indexed": false,
          "name": "proofTx",
          "type": "string"
        }
      ],
      "name": "NewProof",
      "type": "event"
    },
    {
      "anonymous": false,
      "inputs": [
        {
          "indexed": false,
          "name": "state",
          "type": "bool"
        }
      ],
      "name": "Paused",
      "type": "event"
    },
    {
      "anonymous": false,
      "inputs": [
        {
          "indexed": true,
          "name": "executor",
          "type": "address"
        },
        {
          "indexed": false,
          "name": "script",
          "type": "bytes"
        },
        {
          "indexed": false,
          "name": "input",
          "type": "bytes"
        },
        {
          "indexed": false,
          "name": "returnData",
          "type": "bytes"
        }
      ],
      "name": "ScriptResult",
      "type": "event"
    },
    {
      "anonymous": false,
      "inputs": [
        {
          "indexed": true,
          "name": "vault",
          "type": "address"
        },
        {
          "indexed": true,
          "name": "token",
          "type": "address"
        },
        {
          "indexed": false,
          "name": "amount",
          "type": "uint256"
        }
      ],
      "name": "RecoverToVault",
      "type": "event"
    },
    {
      "constant": false,
      "inputs": [
        {
          "name": "_tokenManager",
          "type": "address"
        },
        {
          "name": "_vestingEnd",
          "type": "uint64"
        }
      ],
      "name": "initialize",
      "outputs": [],
      "payable": false,
      "stateMutability": "nonpayable",
      "type": "function"
    },
    {
      "constant": false,
      "inputs": [
        {
          "name": "amount",
          "type": "uint256"
        },
        {
          "name": "account",
          "type": "string"
        }
      ],
      "name": "lock",
      "outputs": [
        {
          "name": "",
          "type": "uint256"
        }
      ],
      "payable": false,
      "stateMutability": "nonpayable",
      "type": "function"
    },
    {
      "constant": false,
      "inputs": [
        {
          "name": "_claimer",
          "type": "address"
        },
        {
          "name": "_claimId",
          "type": "uint256"
        },
        {
          "name": "_proofTx",
          "type": "string"
        }
      ],
      "name": "addProof",
      "outputs": [],
      "payable": false,
      "stateMutability": "nonpayable",
      "type": "function"
    },
    {
      "constant": true,
      "inputs": [
        {
          "name": "_claimer",
          "type": "address"
        },
        {
          "name": "_claimId",
          "type": "uint256"
        }
      ],
      "name": "getClaimAddress",
      "outputs": [
        {
          "name": "addr",
          "type": "string"
        }
      ],
      "payable": false,
      "stateMutability": "view",
      "type": "function"
    },
    {
      "constant": true,
      "inputs": [
        {
          "name": "_claimer",
          "type": "address"
        },
        {
          "name": "_claimId",
          "type": "uint256"
        }
      ],
      "name": "getProof",
      "outputs": [
        {
          "name": "proof",
          "type": "string"
        }
      ],
      "payable": false,
      "stateMutability": "view",
      "type": "function"
    },
    {
      "constant": false,
      "inputs": [],
      "name": "pause",
      "outputs": [],
      "payable": false,
      "stateMutability": "nonpayable",
      "type": "function"
    },
    {
      "constant": false,
      "inputs": [],
      "name": "unpause",
      "outputs": [],
      "payable": false,
      "stateMutability": "nonpayable",
      "type": "function"
    }
  ],
  "bytecode": "0x6080604052620000176401000000006200001d810204565b6200023b565b6200003064010000000062000125810204565b60408051808201909152601881527f494e49545f414c52454144595f494e495449414c495a45440000000000000000602082015290156200010c576040517f08c379a00000000000000000000000000000000000000000000000000000000081526004018080602001828103825283818151815260200191508051906020019080838360005b83811015620000d0578181015183820152602001620000b6565b50505050905090810190601f168015620000fe5780820380516001836020036101000a031916815260200191505b509250505060405180910390fd5b506200012360001964010000000062000154810204565b565b60006200014f60008051602062002727833981519152640100000000620020ce6200023382021704565b905090565b6200016764010000000062000125810204565b60408051808201909152601881527f494e49545f414c52454144595f494e495449414c495a454400000000000000006020820152901562000206576040517f08c379a000000000000000000000000000000000000000000000000000000000815260040180806020018281038252838181518152602001915080519060200190808383600083811015620000d0578181015183820152602001620000b6565b506200023060008051602062002727833981519152826401000000006200239f6200023782021704565b50565b5490565b9055565b6124dc806200024b6000396000f30060806040526004361061015e5763ffffffff7c01000000000000000000000000000000000000000000000000000000006000350416630803fac081146101635780630c1ab77e1461018c5780631792b047146102045780631798de81146102445780632914b9bd1461027f5780632a709b141461030157806332f0a3b514610316578063389ed2671461032b5780633d856fff146103405780633f4ba83a146103e65780634f5b5a52146103fb5780635c975abb1461042c578063602c7826146104415780637e7db6e1146104725780637ed9d50e146104a057806380afdea8146104b55780638456cb59146104ca57806384a1931f146104df5780638b3dd749146105115780639d4941d814610526578063a1658fad14610554578063a479e508146105c8578063ab541a85146105dd578063d4aae0c41461060e578063de4796ed14610623578063f478503914610638578063f643509c14610666575b600080fd5b34801561016f57600080fd5b506101786106c4565b604080519115158252519081900360200190f35b34801561019857600080fd5b50604080516020600460443581810135601f810184900484028501840190955284845261020294823573ffffffffffffffffffffffffffffffffffffffff169460248035953695946064949201919081908401838280828437509497506106ee9650505050505050565b005b34801561021057600080fd5b5061023273ffffffffffffffffffffffffffffffffffffffff60043516610921565b60408051918252519081900360200190f35b34801561025057600080fd5b5061020273ffffffffffffffffffffffffffffffffffffffff6004351667ffffffffffffffff60243516610933565b34801561028b57600080fd5b506040805160206004803580820135601f81018490048402850184019095528484526102d8943694929360249392840191908190840183828082843750949750610b3f9650505050505050565b6040805173ffffffffffffffffffffffffffffffffffffffff9092168252519081900360200190f35b34801561030d57600080fd5b506102d8610c4b565b34801561032257600080fd5b506102d8610c67565b34801561033757600080fd5b50610232610d06565b34801561034c57600080fd5b5061037173ffffffffffffffffffffffffffffffffffffffff60043516602435610d3b565b6040805160208082528351818301528351919283929083019185019080838360005b838110156103ab578181015183820152602001610393565b50505050905090810190601f1680156103d85780820380516001836020036101000a031916815260200191505b509250505060405180910390f35b3480156103f257600080fd5b50610202610dfd565b34801561040757600080fd5b5061037173ffffffffffffffffffffffffffffffffffffffff60043516602435610f47565b34801561043857600080fd5b5061017861110b565b34801561044d57600080fd5b5061037173ffffffffffffffffffffffffffffffffffffffff60043516602435611134565b34801561047e57600080fd5b5061017873ffffffffffffffffffffffffffffffffffffffff600435166112bf565b3480156104ac57600080fd5b506102326112c5565b3480156104c157600080fd5b506102326112fa565b3480156104d657600080fd5b5061020261132a565b3480156104eb57600080fd5b506104f4611493565b6040805167ffffffffffffffff9092168252519081900360200190f35b34801561051d57600080fd5b506102326114bb565b34801561053257600080fd5b5061020273ffffffffffffffffffffffffffffffffffffffff600435166114e6565b34801561056057600080fd5b50604080516020600460443581810135838102808601850190965280855261017895833573ffffffffffffffffffffffffffffffffffffffff169560248035963696956064959394920192918291850190849080828437509497506118089650505050505050565b3480156105d457600080fd5b506102d8611998565b3480156105e957600080fd5b5061037173ffffffffffffffffffffffffffffffffffffffff60043516602435611a5a565b34801561061a57600080fd5b506102d8611ae9565b34801561062f57600080fd5b50610178611b14565b34801561064457600080fd5b5061023273ffffffffffffffffffffffffffffffffffffffff60043516611b45565b34801561067257600080fd5b5060408051602060046024803582810135601f8101859004850286018501909652858552610232958335953695604494919390910191908190840183828082843750949750611b579650505050505050565b6000806106cf6114bb565b905080158015906106e75750806106e4611fd9565b10155b91505b5090565b604080517f50524f4f465f524f4c45000000000000000000000000000000000000000000008152815190819003600a0181206000808352602083019093529161073d9133918491905b50611808565b60408051808201909152600f81527f4150505f415554485f4641494c454400000000000000000000000000000000006020820152901515610816576040517f08c379a00000000000000000000000000000000000000000000000000000000081526004018080602001828103825283818151815260200191508051906020019080838360005b838110156107db5781810151838201526020016107c3565b50505050905090810190601f1680156108085780820380516001836020036101000a031916815260200191505b509250505060405180910390fd5b5073ffffffffffffffffffffffffffffffffffffffff841660009081526001602090815260408083208684528252909120835161085592850190612422565b5073ffffffffffffffffffffffffffffffffffffffff84166000818152600260209081526040805187815280830182815287519282019290925286517f8978b4c46d847b359248a8d11c9669d2f9192d35ddd6954d6d8d3d0c7a151cb29489948994926060850192918601918190849084905b838110156108e05781810151838201526020016108c8565b50505050905090810190601f16801561090d5780820380516001836020036101000a031916815260200191505b50935050505060405180910390a250505050565b60046020526000908152604090205481565b61093b6114bb565b60408051808201909152601881527f494e49545f414c52454144595f494e495449414c495a45440000000000000000602082015290156109d7576040517f08c379a0000000000000000000000000000000000000000000000000000000008152600401808060200182810382528381815181526020019150805190602001908083836000838110156107db5781810151838201526020016107c3565b506109e0611fdd565b60408051808201909152600881527f504153545f454e4400000000000000000000000000000000000000000000000060208201529067ffffffffffffffff90811690831611610a8b576040517f08c379a0000000000000000000000000000000000000000000000000000000008152600401808060200182810382528381815181526020019150805190602001908083836000838110156107db5781810151838201526020016107c3565b50600080547fffffffffffffffffffffffff00000000000000000000000000000000000000001673ffffffffffffffffffffffffffffffffffffffff8416177fffffffff0000000000000000ffffffffffffffffffffffffffffffffffffffff167401000000000000000000000000000000000000000067ffffffffffffffff841602177fffffff00ffffffffffffffffffffffffffffffffffffffffffffffffffffffff169055610b3b611fef565b5050565b6000610b49611998565b73ffffffffffffffffffffffffffffffffffffffff166304bf2a7f836040518263ffffffff167c01000000000000000000000000000000000000000000000000000000000281526004018080602001828103825283818151815260200191508051906020019080838360005b83811015610bcd578181015183820152602001610bb5565b50505050905090810190601f168015610bfa5780820380516001836020036101000a031916815260200191505b5092505050602060405180830381600087803b158015610c1957600080fd5b505af1158015610c2d573d6000803e3d6000fd5b505050506040513d6020811015610c4357600080fd5b505192915050565b60005473ffffffffffffffffffffffffffffffffffffffff1681565b6000610c71611ae9565b73ffffffffffffffffffffffffffffffffffffffff166332f0a3b56040518163ffffffff167c0100000000000000000000000000000000000000000000000000000000028152600401602060405180830381600087803b158015610cd457600080fd5b505af1158015610ce8573d6000803e3d6000fd5b505050506040513d6020811015610cfe57600080fd5b505190505b90565b604080517f50415553455f524f4c45000000000000000000000000000000000000000000008152905190819003600a01902081565b600160208181526000938452604080852082529284529282902080548351600293821615610100027fffffffffffffffffffffffffffffffffffffffffffffffffffffffffffffffff0190911692909204601f81018590048502830185019093528282529092909190830182828015610df55780601f10610dca57610100808354040283529160200191610df5565b820191906000526020600020905b815481529060010190602001808311610dd857829003601f168201915b505050505081565b604080517f50415553455f524f4c45000000000000000000000000000000000000000000008152815190819003600a01812060008083526020830190935291610e4a913391849190610737565b60408051808201909152600f81527f4150505f415554485f4641494c454400000000000000000000000000000000006020820152901515610ee7576040517f08c379a0000000000000000000000000000000000000000000000000000000008152600401808060200182810382528381815181526020019150805190602001908083836000838110156107db5781810151838201526020016107c3565b50600080547fffffff00ffffffffffffffffffffffffffffffffffffffffffffffffffffffff169055604080516001815290517f9422424b175dda897495a07b091ef74a3ef715cf6d866fc972954c1c7f4593049181900360200190a150565b60608282600460008373ffffffffffffffffffffffffffffffffffffffff1673ffffffffffffffffffffffffffffffffffffffff1681526020019081526020016000205481106040805190810160405280600881526020017f4e4f5f50524f4f4600000000000000000000000000000000000000000000000081525090151561102c576040517f08c379a0000000000000000000000000000000000000000000000000000000008152600401808060200182810382528381815181526020019150805190602001908083836000838110156107db5781810151838201526020016107c3565b5073ffffffffffffffffffffffffffffffffffffffff8516600090815260016020818152604080842088855282529283902080548451600294821615610100027fffffffffffffffffffffffffffffffffffffffffffffffffffffffffffffffff0190911693909304601f81018390048302840183019094528383529192908301828280156110fc5780601f106110d1576101008083540402835291602001916110fc565b820191906000526020600020905b8154815290600101906020018083116110df57829003601f168201915b50505050509250505092915050565b6000547c0100000000000000000000000000000000000000000000000000000000900460ff1681565b60608282600460008373ffffffffffffffffffffffffffffffffffffffff1673ffffffffffffffffffffffffffffffffffffffff1681526020019081526020016000205481106040805190810160405280600881526020017f4e4f5f434c41494d000000000000000000000000000000000000000000000000815250901515611219576040517f08c379a0000000000000000000000000000000000000000000000000000000008152600401808060200182810382528381815181526020019150805190602001908083836000838110156107db5781810151838201526020016107c3565b5073ffffffffffffffffffffffffffffffffffffffff8516600090815260036020908152604080832087845282529182902080548351601f60027fffffffffffffffffffffffffffffffffffffffffffffffffffffffffffffffff610100600186161502019093169290920491820184900484028101840190945280845290918301828280156110fc5780601f106110d1576101008083540402835291602001916110fc565b50600190565b604080517f50524f4f465f524f4c45000000000000000000000000000000000000000000008152905190819003600a01902081565b60006113257fd625496217aa6a3453eecb9c3489dc5a53e6c67b444329ea2b2cbc9ff547639b6120ce565b905090565b604080517f50415553455f524f4c45000000000000000000000000000000000000000000008152815190819003600a01812060008083526020830190935291611377913391849190610737565b60408051808201909152600f81527f4150505f415554485f4641494c454400000000000000000000000000000000006020820152901515611414576040517f08c379a0000000000000000000000000000000000000000000000000000000008152600401808060200182810382528381815181526020019150805190602001908083836000838110156107db5781810151838201526020016107c3565b50600080547fffffff00ffffffffffffffffffffffffffffffffffffffffffffffffffffffff167c0100000000000000000000000000000000000000000000000000000000179055604080516001815290517f9422424b175dda897495a07b091ef74a3ef715cf6d866fc972954c1c7f4593049181900360200190a150565b60005474010000000000000000000000000000000000000000900467ffffffffffffffff1681565b60006113257febb05b386a8d34882b8711d156f463690983dc47815980fb82aeeff1aa43579e6120ce565b60008060006114f4846112bf565b60408051808201909152601281527f5245434f5645525f444953414c4c4f57454400000000000000000000000000006020820152901515611591576040517f08c379a0000000000000000000000000000000000000000000000000000000008152600401808060200182810382528381815181526020019150805190602001908083836000838110156107db5781810151838201526020016107c3565b5061159a610c67565b92506115a5836120d6565b60408051808201909152601a81527f5245434f5645525f5641554c545f4e4f545f434f4e54524143540000000000006020820152901515611642576040517f08c379a0000000000000000000000000000000000000000000000000000000008152600401808060200182810382528381815181526020019150805190602001908083836000838110156107db5781810151838201526020016107c3565b5073ffffffffffffffffffffffffffffffffffffffff841615156116ad576040513031925073ffffffffffffffffffffffffffffffffffffffff84169083156108fc029084906000818181858888f193505050501580156116a7573d6000803e3d6000fd5b5061179d565b50826116d573ffffffffffffffffffffffffffffffffffffffff82163063ffffffff61211016565b91506116fe73ffffffffffffffffffffffffffffffffffffffff8216848463ffffffff61224916565b60408051808201909152601d81527f5245434f5645525f544f4b454e5f5452414e534645525f4641494c4544000000602082015290151561179b576040517f08c379a0000000000000000000000000000000000000000000000000000000008152600401808060200182810382528381815181526020019150805190602001908083836000838110156107db5781810151838201526020016107c3565b505b8373ffffffffffffffffffffffffffffffffffffffff168373ffffffffffffffffffffffffffffffffffffffff167f596caf56044b55fb8c4ca640089bbc2b63cae3e978b851f5745cbb7c5b288e02846040518082815260200191505060405180910390a350505050565b6000806118136106c4565b15156118225760009150611990565b61182a611ae9565b905073ffffffffffffffffffffffffffffffffffffffff811615156118525760009150611990565b8073ffffffffffffffffffffffffffffffffffffffff1663fdef910686308761187a886122e1565b6040517c010000000000000000000000000000000000000000000000000000000063ffffffff871602815273ffffffffffffffffffffffffffffffffffffffff808616600483019081529085166024830152604482018490526080606483019081528351608484015283519192909160a490910190602085019080838360005b838110156119125781810151838201526020016118fa565b50505050905090810190601f16801561193f5780820380516001836020036101000a031916815260200191505b5095505050505050602060405180830381600087803b15801561196157600080fd5b505af1158015611975573d6000803e3d6000fd5b505050506040513d602081101561198b57600080fd5b505191505b509392505050565b6000806119a3611ae9565b604080517fbe00bbd80000000000000000000000000000000000000000000000000000000081527fd6f028ca0e8edb4a8c9757ca4fdccab25fa1e0317da1188108f7d2dee14902fb60048201527fddbcfd564f642ab5627cf68b9b7d374fb4f8a36e941a75d89c87998cef03bd616024820152905173ffffffffffffffffffffffffffffffffffffffff929092169163be00bbd8916044808201926020929091908290030181600087803b158015610c1957600080fd5b60036020908152600092835260408084208252918352918190208054825160026001831615610100027fffffffffffffffffffffffffffffffffffffffffffffffffffffffffffffffff0190921691909104601f810185900485028201850190935282815292909190830182828015610df55780601f10610dca57610100808354040283529160200191610df5565b60006113257f4172f0f7d2289153072b0a6ca36959e0cbe2efc3afe50fc81636caa96338137b6120ce565b60007fffffffffffffffffffffffffffffffffffffffffffffffffffffffffffffffff611b3f6114bb565b14905090565b60026020526000908152604090205481565b6000805460408051808201909152600d81527f4c4f434b5f4f4e5f50415553450000000000000000000000000000000000000060208201526060918391907c0100000000000000000000000000000000000000000000000000000000900460ff1615611c1f576040517f08c379a0000000000000000000000000000000000000000000000000000000008152600401808060200182810382528381815181526020019150805190602001908083836000838110156107db5781810151838201526020016107c3565b50835160408051808201909152600d81527f57524f4e475f4143434f554e5400000000000000000000000000000000000000602082015285935090602c14611cc3576040517f08c379a0000000000000000000000000000000000000000000000000000000008152600401808060200182810382528381815181526020019150805190602001908083836000838110156107db5781810151838201526020016107c3565b5060008054604080517f9dc29fac00000000000000000000000000000000000000000000000000000000815233600482015260248101899052905173ffffffffffffffffffffffffffffffffffffffff90921692639dc29fac9260448084019382900301818387803b158015611d3857600080fd5b505af1158015611d4c573d6000803e3d6000fd5b505060008054604080517fcc872b66000000000000000000000000000000000000000000000000000000008152600481018b9052905173ffffffffffffffffffffffffffffffffffffffff909216945063cc872b669350602480820193929182900301818387803b158015611dc057600080fd5b505af1158015611dd4573d6000803e3d6000fd5b505060005473ffffffffffffffffffffffffffffffffffffffff1691506321cb18cd90503387611e02611fdd565b60008054604080517c010000000000000000000000000000000000000000000000000000000063ffffffff891602815273ffffffffffffffffffffffffffffffffffffffff9096166004870152602486019490945267ffffffffffffffff92831660448601527401000000000000000000000000000000000000000090049190911660648401819052608484015260a48301819052905160c4808401936020939083900390910190829087803b158015611ebb57600080fd5b505af1158015611ecf573d6000803e3d6000fd5b505050506040513d6020811015611ee557600080fd5b505133600090815260036020908152604080832084845282529091208651929350611f14929091870190612422565b5033600081815260046020908152604080518581528083018a9052606091810182815289519282019290925288517f552f182d4b9ab267a8580e2aa80cf374b7aabc8f528b7e9eea58919eea48e87d9487948c948c949390926080850192860191908190849084905b83811015611f95578181015183820152602001611f7d565b50505050905090810190601f168015611fc25780820380516001836020036101000a031916815260200191505b5094505050505060405180910390a2949350505050565b4390565b6000611325611fea6122eb565b6122ef565b611ff76114bb565b60408051808201909152601881527f494e49545f414c52454144595f494e495449414c495a4544000000000000000060208201529015612093576040517f08c379a0000000000000000000000000000000000000000000000000000000008152600401808060200182810382528381815181526020019150805190602001908083836000838110156107db5781810151838201526020016107c3565b506120cc61209f611fd9565b7febb05b386a8d34882b8711d156f463690983dc47815980fb82aeeff1aa43579e9063ffffffff61239f16565b565b5490565b5490565b60008073ffffffffffffffffffffffffffffffffffffffff831615156120ff576000915061210a565b823b90506000811191505b50919050565b6040805173ffffffffffffffffffffffffffffffffffffffff83166024808301919091528251808303909101815260449091019091526020810180517bffffffffffffffffffffffffffffffffffffffffffffffffffffffff167f70a0823100000000000000000000000000000000000000000000000000000000179052600090818061219d86846123a3565b60408051808201909152601c81527f534146455f4552435f32305f42414c414e43455f5245564552544544000000006020820152919350915082151561223f576040517f08c379a0000000000000000000000000000000000000000000000000000000008152600401808060200182810382528381815181526020019150805190602001908083836000838110156107db5781810151838201526020016107c3565b5095945050505050565b6040805173ffffffffffffffffffffffffffffffffffffffff8416602482015260448082018490528251808303909101815260649091019091526020810180517bffffffffffffffffffffffffffffffffffffffffffffffffffffffff167fa9059cbb000000000000000000000000000000000000000000000000000000001790526000906122d885826123d4565b95945050505050565b8051602002815290565b4290565b60408051808201909152601581527f55494e5436345f4e554d4245525f544f4f5f4249470000000000000000000000602082015260009067ffffffffffffffff831115612398576040517f08c379a0000000000000000000000000000000000000000000000000000000008152600401808060200182810382528381815181526020019150805190602001908083836000838110156107db5781810151838201526020016107c3565b5090919050565b9055565b6000806000806040516020818751602089018a5afa925060008311156123c857805191505b50909590945092505050565b6000806040516020818551602087016000895af16000811115612418573d8015612405576020811461240e57612416565b60019350612416565b600183511493505b505b5090949350505050565b828054600181600116156101000203166002900490600052602060002090601f016020900481019282601f1061246357805160ff1916838001178555612490565b82800160010185558215612490579182015b82811115612490578251825591602001919060010190612475565b506106ea92610d039250905b808211156106ea576000815560010161249c5600a165627a7a723058204e1b41d39ccebaca2f03517bdb0d844dd44a79b9323ee2e6770aa732f19bd32d0029ebb05b386a8d34882b8711d156f463690983dc47815980fb82aeeff1aa43579e",
  "source": "pragma solidity ^0.4.24;\n\nimport \"@aragon/os/contracts/apps/AragonApp.sol\";\nimport \"@aragon/apps-token-manager/contracts/TokenManager.sol\";\nimport \"@aragon/apps-shared-minime/contracts/MiniMeToken.sol\";\n\n\ncontract Vesting is AragonApp {\n\n    /// Events\n    event NewLock(uint256 vestingId, address indexed lockAddress, uint256 amount, string account);\n    event NewProof(address indexed claimer, uint256 vestingId, string proofTx);\n    event Pause(bool state);\n\n    /// State\n    TokenManager public tokenManager;\n    uint64 public vestingEnd;\n    bool public paused;\n\n    mapping (address => mapping (uint256 => string)) public proofs;\n    mapping (address => uint256) public proofsLength;\n\n    mapping (address => mapping (uint256 => string)) public claims;\n    mapping (address => uint256) public claimsLength;\n\n    /// ACL\n    bytes32 constant public PAUSE_ROLE = keccak256(\"PAUSE_ROLE\");\n    bytes32 constant public PROOF_ROLE = keccak256(\"PROOF_ROLE\");\n\n    /// ERRORS\n    string private constant ERROR_LOCK_ON_PAUSE = \"LOCK_ON_PAUSE\";\n    string private constant ERROR_WRONG_ACCOUNT = \"WRONG_ACCOUNT\";\n    string private constant ERROR_PAST_END = \"PAST_END\";\n    string private constant ERROR_NO_CLAIM = \"NO_CLAIM\";\n    string private constant ERROR_NO_PROOF = \"NO_PROOF\";\n\n    modifier claimExists(address _holder, uint256 _claimId) {\n        require(_claimId < claimsLength[_holder], ERROR_NO_CLAIM);\n        _;\n    }\n\n    modifier proofExists(address _holder, uint256 _claimId) {\n        require(_claimId < claimsLength[_holder], ERROR_NO_PROOF);\n        _;\n    }\n\n    function initialize(\n        address _tokenManager,\n        uint64 _vestingEnd\n    )\n        public\n        onlyInit\n    {\n        require(_vestingEnd > getTimestamp64(), ERROR_PAST_END);\n        tokenManager = TokenManager(_tokenManager);\n        vestingEnd = _vestingEnd;\n        paused = false;\n\n        initialized();\n    }\n\n    /**\n     * @notice Vest `amount` GOLs till the end of action and create proposal to claim `amount` EULs\n     * @return vesting ID\n     */\n    function lock(\n        uint256 _amount,\n        string memory _account\n    )\n        public\n        returns (uint256)\n    {\n        require(paused == false, ERROR_LOCK_ON_PAUSE);\n\n        bytes memory accountBytes = bytes(_account);\n        require(accountBytes.length == 44, ERROR_WRONG_ACCOUNT); // cyber1arvngwny4zxlk2xgzwjvt0w8l78yqr5tvnmue5\n\n        tokenManager.burn(msg.sender, _amount);\n        tokenManager.issue(_amount);\n\n        uint256 claimId = tokenManager.assignVested(msg.sender, _amount, getTimestamp64(), vestingEnd, vestingEnd, false);\n\n        claims[msg.sender][claimId] = _account;\n        claimsLength[msg.sender] = claimsLength[msg.sender]++;\n\n        emit NewLock(claimId, msg.sender, _amount, _account);\n\n        return claimId;\n    }\n\n    function addProof(\n        address _claimer,\n        uint256 _claimId,\n        string memory _proofTx\n    )\n        public\n        auth(PROOF_ROLE)\n    {\n        proofs[_claimer][_claimId] = _proofTx;\n        proofsLength[_claimer] = proofsLength[_claimer]++;\n\n        emit NewProof(_claimer, _claimId, _proofTx);\n    }\n\n    function getClaimAddress(\n        address _claimer,\n        uint256 _claimId\n    )\n        public\n        view\n        claimExists(_claimer, _claimId)\n        returns (string)\n    {\n        return claims[_claimer][_claimId];\n    }\n\n    function getProof(\n        address _claimer,\n        uint256 _claimId\n    )\n        public\n        view\n        proofExists(_claimer, _claimId)\n        returns (string)\n    {\n        return proofs[_claimer][_claimId];\n    }\n\n    function pause() public auth(PAUSE_ROLE) {\n        paused = true;\n        emit Pause(true);\n    }\n\n    function unpause() public auth(PAUSE_ROLE) {\n        paused = false;\n        emit Pause(true);\n    }\n}\n",
  "sourcePath": "/Users/litvintech/Projects/aragon-claim-app/contracts/Vesting.sol",
  "compiler": {
    "name": "solc",
    "version": "0.4.24+commit.e67f0147.Emscripten.clang"
  },
  "schemaVersion": "2.0.1",
  "updatedAt": "2020-01-20T16:06:11.846Z"
}